:040000000200733255
:01000B0032C2
:0100130032BA
:01001B0032B2
:0100230032AA
:01002B0032A2
:01003300329A
:01003B003292
:01004300328A
:01004B003282
:01005300327A
:01005B003272
:01006300326A
:03006B0002011F70
:0300D90002006EB4
:05006E0012011080FEEC
:1000DC00907F937404F0907F9C7495F0907F96744D
:1000EC0090F0907F94E4F0907F9D747FF0907F97D8
:1000FC00E4F0907F957440F0907F9E7442F0907F76
:10010C0098E4F0221200DC1204FCD2AF1207C89063
:03011C00000022BE
:0400CC00C200C201AB
:10011F00C021C0E0C0F0C082C083C002C003C004D1
:10012F00C005C006C007C000C001C0D075D00053C5
:10013F0091EF120455907FAB7401F0907FB4E044BF
:10014F0002F0D0D0D001D000D007D006D005D00417
:10015F00D003D002D083D082D0F0D0E0D021323281
:10016F003232323232323232C0E0C082C083D201F8
:10017F005391EF907FA97404F0D083D082D0E032F6
:10018F00C0E0C082C083D2005391EF907FAA740465
:10019F00F0D083D082D0E032323232323232323249
:1001AF003232AA82747F5AFB7407B50300500302E0
:1001BF000269EB2B2B9001C8730201E00201E402EC
:1001CF0001F702020A02021D02023002024302027A
:1001DF0056907FB422EA30E7067BB67C7F80047BA3
:1001EF00C67C7F8B828C8322EA30E7067BB87C7FCC
:1001FF0080047BC87C7F8B828C8322EA30E7067B6E
:10020F00BA7C7F80047BCA7C7F8B828C8322EA300E
:10021F00E7067BBC7C7F80047BCC7C7F8B828C83CE
:10022F0022EA30E7067BBE7C7F80047BCE7C7F8B0F
:10023F00828C8322EA30E7067BC07C7F80047BD0F0
:10024F007C7F8B828C8322EA30E7067AC27B7F80A9
:10025F00047AD27B7F8A828B832290000022AA822B
:10026F0074105AFB74075A4203907FD7EBF0742037
:10027F004BF022907FE8E0FABA8002800ABA81023E
:10028F008016BA825D8022907F00E4F0907F01F0AB
:10029F00907FB57402F0804C907F00E4F0907F0166
:1002AF00F0907FB57402F0803B907FECE0FAA3E012
:1002BF008A821201B1AA82AB837C008A828B838CE3
:1002CF00F0120D90FA30E008907F007401F0800575
:1002DF00907F00E4F0907F01E4F0907FB57402F01E
:1002EF008002C322D322907FE8E0FA6005BA02466B
:1002FF00800A907FB4E0FA4401F0803A907FEAE000
:10030F00FAA3E0FB4A7027907FECE0FAA3E08A8221
:10031F001201B1AA82AB83EA4B7002C3228A828B8D
:10032F0083E0FC5304FE8A828B83ECF08008907F7D
:10033F00B4E0FA4401F0D322907FE8E0FA6005BA06
:10034F0002468010907FEAE0FAA3E0FBBA0239BBC5
:10035F000036D322907FEAE0FAA3E0FB4A702790A1
:10036F007FECE0FAA3E08A821201B1AA82AB83EAA2
:10037F004B7002C3228A828B83E0FC4304018A8282
:10038F008B83ECF08002C322D322907FEAE0A3E0BC
:10039F00FA907FEAE0FBA3E07C00BA0102800CBA7E
:1003AF000202801DBA0302802E807B7AB07C0D90F2
:1003BF007FD4ECF07AB07C0D7C00907FD5EAF08092
:1003CF00677AC27C0D907FD4ECF07AC27C0D7C00F2
:1003DF00907FD5EAF08051907FECE0FAA3E0FC4AE1
:1003EF0070167AE27C0D907FD4ECF07AE27C0D7C73
:1003FF0000907FD5EAF08030907FECE0FAA3E0FC2C
:10040F00BA0921BC041E1BEB2BFA900E3693CAA31C
:10041F0093FB8A048B05907FD4EDF07B00907FD502
:10042F00EAF08004C322C322D32275828212026DA6
:10043F0075820212026D907FB87402F0907FC8E44B
:10044F00F0907FC9F022907FE9E0FA740CB50200BA
:10045F00500122EA2A2A9004697302049002049E32
:10046F000204AC0204B40204AC0204C10204CA02C6
:10047F0004C20204D70204E70204E80204F80204EB
:10048F00FB120282500122907FB4E04401F022124D
:10049F0002F5500122907FB4E04401F022907FB426
:1004AF00E04401F0221203474042907FB4E0440140
:1004BF00F02222907FB4E04401F022120399402CE5
:1004CF00907FB4E04401F022900DC7E493907F0039
:1004DF00F0907FB57401F02222900DCDE493907FC0
:1004EF0000F0907FB57401F02212043922907FDE64
:1004FF007404F0907FDF7404F0907FE0E4F0907F5D
:10050F00E1F0907FA17401F0907FAFE04401F09093
:10051F007FAEE04401F0907FAD7404F0907FAC7437
:10052F0004F0D2E8907FD6740AF09000C8120D3D07
:07053F00907FD67406F02244
:100DB00012011001FFFFFF4051C210270001010284
:100DC000030109022000010104803209040000022D
:100DD000FFFFFF00070582024000000705020240F6
:100DE00000000403090414034F00700065006E0046
:100DF00055004C0049004E004B0014034F0070009A
:100E000065006E0055004C0049004E004B000E037B
:100E10003000300030003000300031001A034A004A
:100E20005400410047002000410064006100700050
:0E0E3000740065007200E60DFA0D0E0E1C0E29
:10054600E5080424C0F582E4347DF583E0FA30E161
:1005560008907F96E0FB54EFF0EA30E008907F9633
:10056600E0FB547FF0EA30E308907F96E0FB44100E
:10057600F0EA30E208907F96E0FA4480F0227A00B2
:10058600E50824C0F582E4347DF583E0FB603EBBDC
:100596000202805FBB040302061CBB200302064363
:1005A600BB2203020673BB23030206ACBB24030271
:1005B60006E5BB250302071DBB260302074CBB2825
:1005C6000302077BBB290302078A02078E7B05E528
:1005D600080424C0F582E4347DF583E0FAE50804D6
:1005E600F58285090DC002C003120805D003D002AA
:1005F600020790E5080424C0F582E4347DF583E023
:100606002405FBE50804F582C002C003120951D097
:1006160003D002020790E5080424C0F582E4347D85
:10062600F583E0FA2405FBE50804F582850917C081
:1006360002C003120A83D003D0020207907B02E5B0
:10064600080424C0F582E4347DF583E0FC740225B9
:100656000824C0F582E4347DF583E0F5228C82C05F
:1006660002C003120C5BD003D0020207907B02E5A6
:10067600080424C0F582E4347DF583E0FC7D007433
:1006860002250824C0F582E4347DF583E0FFE442C8
:1006960004EF42058C828D83C002C003120C20D069
:1006A60003D0020207907B02E5080424C0F582E429
:1006B600347DF583E0FC7D007402250824C0F582B4
:1006C600E4347DF583E0FFE44204EF42058C828D3D
:1006D60083C002C003120D0AD003D0020207907B2A
:1006E60002E5080424C0F582E4347DF583E0FC7D50
:1006F600007402250824C0F582E4347DF583E0FF0A
:10070600E44204EF42058C828D83C002C003120DC1
:100716003DD003D00280737B007A02C002C0031270
:100726000C95AC82AD83D003D00285098275837E99
:100736008D06EEF0E509042400F582E4347EF583A7
:100746007D00ECF080447B02E5080424C0F582E4D9
:10075600347DF583E0FC7402250824C0F582E43478
:100766007DF583E0F5228C82C002C003120CD8D03E
:1007760003D00280157B01C002C003120546D003D8
:10078600D00280067B0180027B00EA2509F509AAD2
:10079600087C008B057E00ED2AFAEE3CFC0ABA00C6
:1007A600010C907FC9E0FD7E00C3EA9DEC64808E5B
:1007B600F063F08095F04002D322EB042508F5089B
:1007C600C32275080075090010000280FB907F9611
:1007D600E0FA547FF0C202200207120584920280DA
:1007E600F6907F96E0FA4480F0E509600B907FB9B9
:0F07F600E509F010010280FB907FC9E4F080C399
:0900D000750A00750B00750C00A7
:10080500E582FA24C0F582E4347DF583E0F50EEA4D
:100815000424C0F582E4347DF583E0F50F74022AE3
:10082500FD24C0F582E4347DF583E0C4540FFE5306
:10083500060FED24C0F582E4347DF583E0FD740FE9
:100845005DF51074032A24C0F582E4347DF583E058
:10085500FF74042A24C0F582E4347DF583E0F511A4
:10086500EE60078F228E82120C5B907F97E0FE531D
:1008750006F87F0074044EF87900AD0E7B001DBDAF
:10088500FF011B89027C00C3EA9DEC64808BF06349
:10089500F08095F050357A007B00BB080050199028
:1008A5007F97EEF0E8F0EAC313FA907F99E0FC3009
:1008B500E5034302800B80E2E50D292400F582E47F
:1008C500347EF583EAF009890780AF89077A00ABA2
:1008D50010751200E512B50F00503EAD0F78001DE2
:1008E500BDFF0118A9127C00E9B50511ECB5000D95
:1008F500EB600A4306021BE511C313F511907F97C0
:10090500EEF074044EF0EAC313FA907F99E0FC30E0
:10091500E503430280051280BBAC0F7D007408C35C
:100925009CFCE49DFD8CF005F0EA8002C313D5F034
:10093500FBFAE50D2F2400F582E4347EF583EAF019
:10094500EB60088511228B82020C5B22E582FA247A
:10095500C0F582E4347DF583E0F513EA0424C0F59F
:1009650082E4347DF583E0F51474022AFD24C0F594
:1009750082E4347DF583E0C4540FFE53060FED2465
:10098500C0F582E4347DF583E0FD740F5DF51574E3
:10099500032A24C0F582E4347DF583E0FF74042A3C
:1009A50024C0F582E4347DF583E0F516EE600B8F07
:1009B500228E82C002120C5BD002907F97E0FE531C
:1009C50006F97F00A9137D0019B9FF011D8F037872
:1009D50000C3EB99E864808DF063F08095F05038A2
:1009E500EA2F240524C0F582E4347DF583E0FB7D00
:1009F50000BD0800501FEB30E0054306018003539E
:100A050006FE907F97EEF0EBC313FB907F9774047F
:100A15004EF00D80DC0F80ACEA2F240524C0F58252
:100A2500E4347DF583E0FBAA157D00EDB514005097
:100A350041EB30E00543060180035306FEAF147811
:100A4500001FBFFF01188D017C00E9B50711ECB54A
:100A5500000DEA600A4306021AE516C313F516905F
:100A65007F97EEF0EBC313FB907F9774044EF00D68
:100A750080B9EA60088516228A82020C5B22E5822B
:100A8500F51824C0F582E4347DF583E0F519E51801
:100A95000424C0F582E4347DF583E0F51A7402255B
:100AA50018FD24C0F582E4347DF583E0C4540FFEBF
:100AB50053060FED24C0F582E4347DF583E0FD7423
:100AC5000F5DF51B7403251824C0F582E4347DF50C
:100AD50083E0FF7404251824C0F582E4347DF58392
:100AE500E0F51CEE60078F228E82120C5B907F97DB
:100AF500E0FE5306F97F007900AD197B001DBDFFAF
:100B0500011B89007A00C3E89DEA64808BF063F0DD
:100B15008095F0505EE51829240524C0F582E4345B
:100B25007DF583E0F51D7B007D00BD08005031E5B6
:100B35001D30E00543060180035306FE907F97EEC6
:100B4500F0E51DC313F51D907F9774044EF0EBC3BC
:100B550013FB907F99E0F830E5034303800D80CACD
:100B6500E517292400F582E4347EF583EBF0098945
:100B75000780868907E51829240524C0F582E43411
:100B85007DF583E0F51D7B00AD1B751E00E51EB5EB
:100B95001A005054E51D30E0054306018003530655
:100BA500FEA91A7C0019B9FF011CA81E7A00E8B538
:100BB5000111EAB5040DED600A4306021DE51CC3EB
:100BC50013F51C907F97EEF0E51DC313F51D907F7F
:100BD5009774044EF0EBC313FB907F99E0FA30E570
:100BE50003430380051E80A5AC1A7A007408C39CD4
:100BF500FCE49AFA8CF005F0EB8002C313D5F0FB08
:100C0500FBE5172F2400F582E4347EF583EBF0ED48
:100C15006008851C228D82020C5B22AA82AB837C34
:100C2500007D00C3EC9AED9B502B907F97E054FB21
:100C3500F07E00EEB50B0050030E80F7907F97E035
:100C45004404F07E00EEB50B0050030E80F70CBC9B
:100C550000D10D80CE22AA82907F97E0FB74FB5BCA
:100C6500F5237B00EBB502005024E52230E0054377
:100C7500230280035323FD907F97E523F0E522C3EC
:100C850013F522907F9774044523F00B80D622221A
:100C95007A00907F99E0FB30E5027A01907F99E038
:100CA500FB30E603430202907F9AE0FB30E7034303
:100CB5000204907F9BE0FB30E503430208907F9A96
:100CC500E0FB53037F8A04E4FAFDEB4AF582ED4C21
:100CD500F58322E582547FF4FA907F97E05AF07409
:100CE5007F5522FA907F97E04AF02285820A852275
:100CF5000B85230C2200227A567B021ABAFF011BB0
:100D0500EA4B70F722752205752300120D67AA823A
:100D1500AB837C007D00C3EC9AED9B501AC002C0EA
:100D250003C004C005120CFAD005D004D003D002CC
:100D35000CBC00E20D80DF22AA82AB837C007D0023
:100D4500C3EC9AED9B501AC002C003C004C0051243
:100D55000CFCD005D004D003D0020CBC00E20D8001
:020D6500DF228B
:03004300021B009D
:101B000002011F0002016E0002016F00020170005D
:101B100002017100020172000201730002017400EF
:101B200002017500020176000201770002018F00B8
:101B30000201A7000201A8000201A9000201AA00F7
:101B40000201AB000201AC000201AD000201AE00D7
:081B50000201AF000201B00028
:100D67007A10E4FBFCE58225E0F582E58333F58321
:100D7700EB33FBEC33FCEB9522F5F0EC95234006C7
:090D8700FCABF0438201DADD222D
:0600A200E478FFF6D8FD32
:100080007900E94400601B7A00900E3E780075927A
:1000900020E493F2A308B800020592D9F4DAF275CD
:0200A00092FFCD
:1000A8007800E84400600A7900759220E4F309D8E2
:1000B800FC7800E84400600C7900902000E4F0A38C
:0400C800D8FCD9FA8D
:0D007300758123120DACE582600302006E62
:100D900020F71430F6148883A88220F507E6A8838C
:100DA00075830022E280F7E49322E022758200221C
:00000001FF
