:040000000200733255
:01000B0032C2
:0100130032BA
:01001B0032B2
:0100230032AA
:01002B0032A2
:01003300329A
:01003B003292
:01004300328A
:01004B003282
:01005300327A
:01005B003272
:01006300326A
:03006B000201256A
:0300DF0002006EAE
:05006E0012011680FEE6
:1000E200907F937404F0907F9C7495F0907F967447
:1000F20090F0907F94E4F0907F9D747FF0907F97D2
:10010200E4F0907F957440F0907F9E7442F0907F6F
:1001120098E4F0221200E2120502D2AF12093590E1
:03012200000022B8
:0400CC00C200C201AB
:10012500C021C0E0C0F0C082C083C002C003C004CB
:10013500C005C006C007C000C001C0D075D00053BF
:1001450091EF12045B907FAB7401F0907FB4E044B3
:1001550002F0D0D0D001D000D007D006D005D00411
:10016500D003D002D083D082D0F0D0E0D02132327B
:100175003232323232323232C0E0C082C083D201F2
:100185005391EF907FA97404F0D083D082D0E032F0
:10019500C0E0C082C083D2005391EF907FAA74045F
:1001A500F0D083D082D0E032323232323232323243
:1001B5003232AA82747F5AFB7407B50300500302DA
:1001C500026FEB2B2B9001CE730201E60201EA02CE
:1001D50001FD020210020223020236020249020256
:1001E5005C907FB422EA30E7067BB67C7F80047B97
:1001F500C67C7F8B828C8322EA30E7067BB87C7FC6
:1002050080047BC87C7F8B828C8322EA30E7067B67
:10021500BA7C7F80047BCA7C7F8B828C8322EA3008
:10022500E7067BBC7C7F80047BCC7C7F8B828C83C8
:1002350022EA30E7067BBE7C7F80047BCE7C7F8B09
:10024500828C8322EA30E7067BC07C7F80047BD0EA
:100255007C7F8B828C8322EA30E7067AC27B7F80A3
:10026500047AD27B7F8A828B832290000022AA8225
:1002750074105AFB74075A4203907FD7EBF0742031
:100285004BF022907FE8E0FABA8002800ABA810238
:100295008016BA825D8022907F00E4F0907F01F0A5
:1002A500907FB57402F0804C907F00E4F0907F0160
:1002B500F0907FB57402F0803B907FECE0FAA3E00C
:1002C5008A821201B7AA82AB837C008A828B838CD7
:1002D500F0121427FA30E008907F007401F08005D1
:1002E500907F00E4F0907F01E4F0907FB57402F018
:1002F5008002C322D322907FE8E0FA6005BA024665
:10030500800A907FB4E0FA4401F0803A907FEAE0F9
:10031500FAA3E0FB4A7027907FECE0FAA3E08A821B
:100325001201B7AA82AB83EA4B7002C3228A828B81
:1003350083E0FC5304FE8A828B83ECF08008907F77
:10034500B4E0FA4401F0D322907FE8E0FA6005BA00
:1003550002468010907FEAE0FAA3E0FBBA0239BBBF
:100365000036D322907FEAE0FAA3E0FB4A7027909B
:100375007FECE0FAA3E08A821201B7AA82AB83EA96
:100385004B7002C3228A828B83E0FC4304018A827C
:100395008B83ECF08002C322D322907FEAE0A3E0B6
:1003A500FA907FEAE0FBA3E07C00BA0102800CBA78
:1003B5000202801DBA0302802E807B7A477C14904E
:1003C5007FD4ECF07A477C147C00907FD5EAF080EE
:1003D500677A597C14907FD4ECF07A597C147C00B0
:1003E500907FD5EAF08051907FECE0FAA3E0FC4ADB
:1003F50070167A797C14907FD4ECF07A797C147C31
:1004050000907FD5EAF08030907FECE0FAA3E0FC25
:10041500BA0921BC041E1BEB2BFA9014CD93CAA379
:1004250093FB8A048B05907FD4EDF07B00907FD5FC
:10043500EAF08004C322C322D3227582821202739A
:10044500758202120273907FB87402F0907FC8E43F
:10045500F0907FC9F022907FE9E0FA740CB50200B4
:10046500500122EA2A2A90046F730204960204A41A
:100475000204B20204BA0204B20204C70204D002A2
:1004850004C80204DD0204ED0204EE0204FE0205C6
:1004950001120288500122907FB4E04401F022123B
:1004A50002FB500122907FB4E04401F022907FB41A
:1004B500E04401F02212034D4042907FB4E0440134
:1004C500F02222907FB4E04401F02212039F402CD9
:1004D500907FB4E04401F02290145EE493907F0095
:1004E500F0907FB57401F02222901464E493907F1C
:1004F50000F0907FB57401F02212043F22907FDE58
:100505007404F0907FDF7404F0907FE0E4F0907F56
:10051500E1F0907FA17401F0907FAFE04401F0908D
:100525007FAEE04401F0907FAD7404F0907FAC7431
:1005350004F0D2E8907FD6740AF09000C81213D464
:07054500907FD67406F0223E
:1014470012011001FFFFFF4051C2102700010102E6
:10145700030109022000010104803209040000028F
:10146700FFFFFF0007058202400000070502024058
:1014770000000403090414034F00700065006E00A8
:1014870055004C0049004E004B0014034F007000FC
:1014970065006E0055004C0049004E004B000E03DE
:1014A7003000300030003000300031001A034A00AD
:1014B70054004100470020004100640061007000B3
:0E14C7007400650072007D149114A514B31416
:10054C00E5080424C0F582E4347DF583E0FA30E15B
:10055C0008907F96E0FB54EFF0EA30E008907F962D
:10056C00E0FB547FF0EA30E308907F96E0FB441008
:10057C00F0EA30E208907F96E0FA4480F0227A00AC
:10058C00E50824C0F582E4347DF583E0FB742AB5DC
:10059C00030050030208FBEB240983C0E0EB242E7C
:1005AC0083C0E02206DF2C054F28FBFBFBFBFBFB8B
:1005BC00FBFBFBFBFBFBFBFBFBFBFBFBFBFBFBFB7F
:1005CC00FBFBFBFB764FA67FB8F12A5A89E8F706AE
:1005DC000606070607080808080808080808080897
:1005EC000808080808080808080808080808080681
:1005FC00070607070708080808087B05E508042410
:10060C00C0F582E4347DF583E0FAE50804F58285D3
:10061C000927C002C003120972D003D0020208FDE0
:10062C00E5080424C0F582E4347DF583E02405FB61
:10063C00E50804F582C002C003120C42D003D002BC
:10064C000208FDE5080424C0F582E4347DF583E05E
:10065C00FA2405FBE50804F58285093BC002C003BA
:10066C00120ED2D003D0020208FD7B02E50804244E
:10067C00C0F582E4347DF583E0FC7402250824C0C7
:10068C00F582E4347DF583E0F50A8C82C002C00368
:10069C001212A6D003D0020208FD7B02E508042446
:1006AC00C0F582E4347DF583E0FC7D0074022508FE
:1006BC0024C0F582E4347DF583E0FFE44204EF428C
:1006CC00058C828D83C002C003121239D003D00274
:1006DC000208FD7B05E5080424C0F582E4347DF5B1
:1006EC0083E0FAE50804F58285092DC002C00312E7
:1006FC000AC4D003D0020208FDE5080424C0F58228
:10070C00E4347DF583E02405FBE50804F582C002A2
:10071C00C003120D74D003D0020208FDE5080424B6
:10072C00C0F582E4347DF583E0FA2405FBE508048A
:10073C00F582850943C002C00312106FD003D002AA
:10074C000208FD7B02E5080424C0F582E4347DF543
:10075C0083E0FE7402250824C0F582E4347DF58321
:10076C00E0F50A8E82C002C0031212DBD003D00265
:10077C000208FD7B02E5080424C0F582E4347DF513
:10078C0083E0FC7D007402250824C0F582E4347DEE
:10079C00F583E0FFE44204EF42058C828D83C002B6
:1007AC00C003121263D003D0020208FD7B02E508DD
:1007BC000424C0F582E4347DF583E0FC7D007402F2
:1007CC00250824C0F582E4347DF583E0FFE442047F
:1007DC00EF42058C828D83C002C0031213A1D0039B
:1007EC00D0020208FD7B02E5080424C0F582E43443
:1007FC007DF583E0FC7D007402250824C0F582E4BD
:10080C00347DF583E0FFE44204EF42058C828D8356
:10081C00C002C0031213D4D003D0020208FD7B0027
:10082C007A02C002C003121326AC82AD83D003D06F
:10083C000285098275837E8D06EEF0E5090424009D
:10084C00F582E4347EF5837D00ECF00208FD7B023A
:10085C00E5080424C0F582E4347DF583E0FC7402E1
:10086C00250824C0F582E4347DF583E0F50A8C82FA
:10087C00C002C003121369D003D00280747B05E55B
:10088C00080424C0F582E4347DF583E0FC74022571
:10089C000824C0F582E4347DF583E0F50A74032561
:1008AC000824C0F582E4347DF583E0F50B7404254F
:1008BC000824C0F582E4347DF583E0F50C7405253D
:1008CC000824C0F582E4347DF583E0F50D8C82C0FC
:1008DC0002C003121381D003D00280157B01C00229
:1008EC00C00312054CD003D00280067B0180027B32
:1008FC0000EA2509F509AA087C008B057E00ED2A83
:10090C00FAEE3CFC0ABA00010C907FC9E0FD7E00B7
:10091C00C3EA9DEC64808EF063F08095F04002D3C6
:10092C0022EB042508F508C3227508007509001090
:10093C00000280FB907F96E0FA547FF0C202200206
:10094C000712058A920280F6907F96E0FA4480F0B6
:10095C00E509600B907FB9E509F010010280FB906E
:06096C007FC9E4F080C326
:0F00D00075220075230075240075250075260024
:10097200E582FA24C0F582E4347DF583E0F528EAC5
:100982000424C0F582E4347DF583E0F52974022A5B
:10099200FD24C0F582E4347DF583E0C4540FFE5398
:1009A200060FED24C0F582E4347DF583E0FD740F7B
:1009B2005DF52A74032A24C0F582E4347DF583E0D0
:1009C200FF74042A24C0F582E4347DF583E0F52B1C
:1009D200EE60078F0A8E821212A6907F97E0FE5376
:1009E20006F87F0074044EF87900AD287B001DBD27
:1009F200FF011B89027C00C3EA9DEC64808BF063DB
:100A0200F08095F050387A007B00BB0800501C90B3
:100A12007F97EEF0EAC313FA907F97E8F0907F9900
:100A2200E0FC30E5034302800B80DFE52729240048
:100A3200F582E4347EF583EAF009890780AC890700
:100A42007A00AB2A752C00E52CB529005041AD295E
:100A520078001DBDFF0118A92C7C00E9B50511EC39
:100A6200B5000DEB600A4306021BE52BC313F52B01
:100A7200907F97EEF0EAC313FA907F9774044EF0DA
:100A8200907F99E0FC30E503430280052C80B8ACEE
:100A9200297D007408C39CFCE49DFD8CF005F0EAFE
:100AA2008002C313D5F0FBFAE5272F2400F582E478
:100AB200347EF583EAF0EB6008852B0A8B82021202
:100AC200A622E582FA24C0F582E4347DF583E0F5BE
:100AD2002EEA0424C0F582E4347DF583E0F52F7418
:100AE200022AFD24C0F582E4347DF583E0C4540F6C
:100AF200FE53060FED24C0F582E4347DF583E0FD5C
:100B0200740F5DF53074032A24C0F582E4347DF558
:100B120083E0FF74042A24C0F582E4347DF583E087
:100B2200F531EE60078F0A8E821212DB907F97E01A
:100B3200FE5306F87F0074044EF87900AD2E7B0058
:100B42001DBDFF011B89027C00C3EA9DEC64808B02
:100B5200F063F08095F0504E7A007B00BB080050A5
:100B620032907F97EEF07C00ECB5220050030C80AF
:100B7200F7EAC313FA907F97E8F07C00ECB5220005
:100B820050030C80F7907F99E0FC30E5034302802C
:100B92000B80C9E52D292400F582E4347EF583EA31
:100BA200F0098907809689077A00AB30753200E533
:100BB20032B52F005057AD2F78001DBDFF0118A987
:100BC200327C00E9B50511ECB5000DEB600A430675
:100BD200021BE531C313F531907F97EEF07C00ECF8
:100BE200B5220050030C80F7EAC313FA907F977482
:100BF200044EF07C00ECB5220050030C80F7907F8D
:100C020099E0FC30E503430280053280A2AC2F7DDF
:100C1200007408C39CFCE49DFD8CF005F0EA8002A0
:100C2200C313D5F0FBFAE52D2F2400F582E4347EC0
:100C3200F583EAF0EB600885310A8B820212DB222F
:100C4200E582FA24C0F582E4347DF583E0F533EAE7
:100C52000424C0F582E4347DF583E0F53474022A7D
:100C6200FD24C0F582E4347DF583E0C4540FFE53C5
:100C7200060FED24C0F582E4347DF583E0FD740FA8
:100C82005DF53574032A24C0F582E4347DF583E0F2
:100C9200FF74042A24C0F582E4347DF583E0F5363E
:100CA200EE600B8F0A8E82C0021212A6D002907FD3
:100CB20097E0FE5306F97F00A9337D0019B9FF01C1
:100CC2001D8F037800C3EB99E864808DF063F08098
:100CD20095F05038EA2F240524C0F582E4347DF5DE
:100CE20083E0FB7D00BD0800501FEB30E0054306AA
:100CF2000180035306FE907F97EEF0EBC313FB9047
:100D02007F9774044EF00D80DC0F80ACEA2F24052F
:100D120024C0F582E4347DF583E0FBAA357D00ED45
:100D2200B534005041EB30E0054306018003530621
:100D3200FEAF3478001FBFFF01188D017C00E9B5BA
:100D42000711ECB5000DEA600A4306021AE536C344
:100D520013F536907F97EEF0EBC313FB907F9774F9
:100D6200044EF00D80B9EA600885360A8A820212C2
:100D7200A622E582FA24C0F582E4347DF583E0F50B
:100D820037EA0424C0F582E4347DF583E0F5387453
:100D9200022AFD24C0F582E4347DF583E0C4540FB9
:100DA200FE53060FED24C0F582E4347DF583E0FDA9
:100DB200740F5DF53974032A24C0F582E4347DF59D
:100DC20083E0FF74042A24C0F582E4347DF583E0D5
:100DD200F53AEE600B8F0A8E82C0021212DBD0024D
:100DE200907F97E0FE5306F97F00A9377D0019B97D
:100DF200FF011D8F037800C3EB99E864808DF063D7
:100E0200F08095F0504EEA2F240524C0F582E43498
:100E12007DF583E0FB7D00BD08005035EB30E00539
:100E220043060180035306FE907F97EEF07800E8B8
:100E3200B5230050030880F7EBC313FB907F977430
:100E4200044EF07800E8B5230050030880F70D80C7
:100E5200C60F8096EA2F240524C0F582E4347DF57E
:100E620083E0FBAA397D00EDB538005057EB30E046
:100E72000543060180035306FEAF3878001FBFFF0B
:100E820001188D017C00E9B50711ECB5000DEA608F
:100E92000A4306021AE53AC313F53A907F97EEF039
:100EA2007C00ECB5230050030C80F7EBC313FB90DE
:100EB2007F9774044EF07C00ECB5230050030C8045
:100EC200F70D80A3EA6008853A0A8A820212DB22C1
:100ED200E582F53C24C0F582E4347DF583E0F53DFE
:100EE200E53C0424C0F582E4347DF583E0F53E74EC
:100EF20002253CFD24C0F582E4347DF583E0C45430
:100F02000FFE53060FED24C0F582E4347DF583E035
:100F1200FD740F5DF53F7403253C24C0F582E43473
:100F22007DF583E0FF7404253C24C0F582E4347D22
:100F3200F583E0F540EE60078F0A8E821212A690CA
:100F42007F97E0FE5306F97F007900AD3D7B001DDF
:100F5200BDFF011B89007A00C3E89DEA64808BF023
:100F620063F08095F0505EE53C29240524C0F582AB
:100F7200E4347DF583E0F5417B007D00BD0800503F
:100F820031E54130E00543060180035306FE907FC0
:100F920097EEF0E541C313F541907F9774044EF04C
:100FA200EBC313FB907F99E0F830E5034303800D18
:100FB20080CAE53B292400F582E4347EF583EBF018
:100FC20009890780868907E53C29240524C0F58222
:100FD200E4347DF583E0F5417B00AD3F754200E5E9
:100FE20042B53E005054E54130E00543060180031E
:100FF2005306FEA93E7C0019B9FF011CA8427A00E3
:10100200E8B50111EAB5040DED600A4306021DE5DB
:1010120040C313F540907F97EEF0E541C313F541CD
:10102200907F9774044EF0EBC313FB907F99E0FA24
:1010320030E503430380054280A5AC3E7A00740884
:10104200C39CFCE49AFA8CF005F0EB8002C313D542
:10105200F0FBFBE53B2F2400F582E4347EF583EBC5
:10106200F0ED600885400A8D820212A622E582F523
:101072004424C0F582E4347DF583E0F545E544047B
:1010820024C0F582E4347DF583E0F54674022544FC
:10109200FD24C0F582E4347DF583E0C4540FFE5391
:1010A200060FED24C0F582E4347DF583E0FD740F74
:1010B2005DF5477403254424C0F582E4347DF5834D
:1010C200E0FF7404254424C0F582E4347DF583E016
:1010D200F548EE60078F0A8E821212DB907F97E04E
:1010E200FE5306F97F007900AD457B001DBDFF016F
:1010F2001B89007A00C3E89DEA64808BF063F0806C
:1011020095F05075E54429240524C0F582E4347D28
:10111200F583E0F5497B007D00BD08005047E549B5
:1011220030E00543060180035306FE907F97EEF000
:101132007800E8B5240050030880F7E549C313F5A9
:1011420049907F9774044EF07800E8B5240050036C
:101152000880F7EBC313FB907F99E0F830E5034377
:1011620003800D80B4E543292400F582E4347EF542
:1011720083EBF00989070210EA8907E5442924056F
:1011820024C0F582E4347DF583E0F5497B00AD4768
:10119200754A00E54AB54600506AE54930E0054324
:1011A200060180035306FEA9467C0019B9FF011C03
:1011B200A84A7A00E8B50111EAB5040DED600A43C8
:1011C20006021DE548C313F548907F97EEF07A00BA
:1011D200EAB5240050030A80F7E549C313F54990A4
:1011E2007F9774044EF07A00EAB5240050030A8017
:1011F200F7EBC313FB907F99E0FA30E503430380DA
:10120200054A808FAC467A007408C39CFCE49AFAC3
:101212008CF005F0EB8002C313D5F0FBFBE5432F06
:101222002400F582E4347EF583EBF0ED6008854816
:101232000A8D820212DB22AA82AB83907F97E0FCA6
:101242005304FB74044CFD7E007F00C3EE9AEF9BB7
:10125200500E907F97ECF0EDF00EBE00EE0F80EB9B
:1012620022AA82AB83907F97E0FC5304FB74044C68
:10127200FD7E007F00C3EE9AEF9B5027907F97EC94
:10128200F07800E8B5250050030880F7907F97EDCD
:10129200F07800E8B5250050030880F70EBE00D5AF
:1012A2000F80D222AA82907F97E0FB5303FB7C003F
:1012B200ECB502005022E50A30E005430302800348
:1012C2005303FD907F97EBF0E50AC313F50A907F75
:1012D2009774044BF00C80D822AA82907F97E0FB8F
:1012E2005303FB7C00ECB502005038E50A30E00500
:1012F20043030280035303FD907F97EBF07D00EDE3
:10130200B5260050030D80F7E50AC313F50A907F56
:101312009774044BF07D00EDB5260050030D80F765
:101322000C80C2227A00907F99E0FB30E5027A01BC
:10133200907F99E0FB30E603430202907F9AE0FB44
:1013420030E703430204907F9BE0FB30E503430256
:1013520008907F9AE0FB53037F8A04E4FAFDEB4A8C
:10136200F582ED4CF58322E582547FF4FA907F9763
:10137200E05AF0747F550AFA907F97E04AF022858E
:101382008222850A23850B24850C25850D262200C1
:10139200227A567B021ABAFF011BEA4B70F72275BA
:1013A2000A05750B001213FEAA82AB837C007D0036
:1013B200C3EC9AED9B501AC002C003C004C00512D0
:1013C2001391D005D004D003D0020CBC00E20D80F2
:1013D200DF22AA82AB837C007D00C3EC9AED9B5096
:1013E2001AC002C003C004C005121393D005D00472
:0C13F200D003D0020CBC00E20D80DF2212
:03004300021B009D
:101B00000201250002017400020175000201760045
:101B100002017700020178000201790002017A00D7
:101B200002017B0002017C0002017D0002019500A0
:101B30000201AD000201AE000201AF000201B000DF
:101B40000201B1000201B2000201B3000201B400BF
:081B50000201B5000201B6001C
:1013FE007A10E4FBFCE58225E0F582E58333F58384
:10140E00EB33FBEC33FCEB950AF5F0EC950B400659
:09141E00FCABF0438201DADD228F
:0600A200E478FFF6D8FD32
:100080007900E94400601B7A009014D578007592DD
:1000900020E493F2A308B800020592D9F4DAF275CD
:0200A00092FFCD
:1000A8007800E84400600A7900759220E4F309D8E2
:1000B800FC7800E84400600C7900902000E4F0A38C
:0400C800D8FCD9FA8D
:0D00730075814A121443E582600302006E9D
:1014270020F71430F6148883A88220F507E6A883EE
:1014370075830022E280F7E49322E022758200227E
:00000001FF
